:1000000012C019C018C017C016C015C014C013C044
:1000100012C0B3C410C00FC00EC00DC00CC00BC0C6
:100020000AC009C008C011241FBECFE5D4E0DEBF5E
:10003000CDBF02D0B6C4B4C498D47CD45ED40ED4A0
:10004000403009F4A6D4F5D368D3FED3DFD1D0D1A4
:1000500018D09FD4FFCF089539D368EAB7D201E012
:10006000402E0027502E4FD431D36CEAAFD22ED37E
:1000700061EBACD26EEBAAD26DECA8D26CEDA6D23D
:1000800008950FEFA02E00E0902EB02E1FD360E158
:100090009DD24AD4D4D31ED28A15D9F3A82E81304A
:1000A00009F40AC0823009F40EC0833009F412C08A
:1000B000843009F413C0EDDF01E0901618F0092D2B
:1000C0000A95902E12D001E0B01618F00B2D0A956B
:1000D000B02E0BD00B2D0395B02E07D002E090165A
:1000E00018F4092D0395902E00D0803009F451D4D6
:1000F00000E0901201C009C00395901201C01BC01E
:100100000395901201C03CC044D400E0B01639F011
:100110000395B01641F00395B01649F03AD4D6D203
:1001200060E154D2B6CFD2D26DE150D2B2CFCED2AE
:1001300069E24CD2AECF00E0B01639F001E0B01663
:1001400051F002E0B016B1F024D4C0D260E13ED24A
:10015000B5D001D29ECF0027502E0395402E7FD2DE
:100160006EE534D2DBD3B2D26DE130D2092D0A95DF
:10017000902E8FCFABD262E329D282D0CBD189CF60
:10018000A5D20027402E5B2C6AD261E41FD2C2D1D7
:1001900080CF089593D0309160003E130FC030910E
:1001A0006100333919F0353929F008C03091620007
:1001B000373004C0309162003F3000C00895AA9AE1
:1001C000A99AC69ACED3CDD3909A07E0A7D00A9524
:1001D000E9F7C298C398C498A898C3D3909812C05E
:1001E000C298C398C498A898C69A9098BAD30AC0DF
:1001F000C698909AC298C398C498A898C69AB1D342
:100200009098A6D30895DBDF50E892D0A1D3A998A7
:10021000A99A90D3B9D00895D2DF50916D0000E033
:1002200010E00FD050916E0001E010E00AD0509124
:100230006F0000E011E005D05091700019D0A4D0FB
:10024000089550E475D05FEF82D00000003011F0C7
:10025000A89A01C0A898103011F0919A01C0919805
:10026000A99800000000A99A65D3A89891980895CC
:1002700050E25ED05FEF6BD0A998A99A5BD3089546
:100280009EDF54E055D0AA989198A89832D0509308
:100290006D00AA98919AA89A2CD050936E00AA98B3
:1002A000919AA89826D050936F00AA989198A89AEE
:1002B00020D050937000AA9A67D0089580DF00E0A4
:1002C000802E0ED05093600001E0802E09D0509314
:1002D000610002E0802E04D05093620055D0089552
:1002E00058E026D0582D29D0AA98A89802D0AA9ACA
:1002F000089550D000B316B3552702FD506803FD92
:10030000506417FD506205FD506106FD586007FD01
:10031000546010FD526011FD5160089519D3C59AC3
:1003200017D3C598089514D3C29A12D3C2980895CA
:10033000C39AC498A89815D00895C398C498A8984B
:1003400010D00895C398C498A89A0BD00895C39864
:10035000C49AA89806D00895C398C49AA89A01D0C0
:10036000089529D050FDC19A51FDC09A52FD979A27
:1003700053FD969A54FD959A55FDC79A56FD939A4A
:1003800057FD929ACBDF0895E3D204D025D0909AFE
:10039000C6980895B998B8988F988E988D98BF98F8
:1003A0008B988A98C198C098979896989598C7986E
:1003B000939892980895B99AB89A8F9A8E9A8D9A2E
:1003C000BF9A8B9A8A9AC198C09897989698959850
:1003D000C798939892980895AA98A998A898C498AD
:1003E000C398C2989198C598909AC6989498089581
:1003F000A29AA19AA09ABC9ABB9ABA9A899ABD9AD3
:10040000889ABE9A8C98C6DFE7DF089560E07AD0BC
:1004100005E5301711F00ED00CC061E073D0C32E8B
:1004200062E070D0D32E63E06DD0E32E64E06AD03A
:10043000F32E089504D27A50872F48D163E7C6D0AF
:10044000FED1781710F076D2FBCFB5D0C72E72D27E
:100450007A50872F3BD16DE7B9D0F1D1781710F0E2
:1004600069D2FBCFA8D0D72E65D27A50872F2ED154
:1004700066E8ACD0E4D1781710F05CD2FBCF9BD00B
:10048000E72E58D27A50872F21D16FE89FD0D7D14D
:10049000781710F04FD2FBCF8ED0F72E4BD2000042
:1004A000DC1408F076D2ED1408F073D2FE1408F0D4
:1004B00070D2000061E03C2D1CD062E03D2D19D0CF
:1004C00063E03E2D16D064E03F2D13D060E035E5AB
:1004D00010D0089588277A507C1550F484E07D155B
:1004E00038F483E07E1520F482E07F1508F481E083
:1004F0000895E199FECF00270FBB6EBB3DBBE29A8A
:10050000E19A0895E199FECF00270FBB6EBBE09AF8
:100510003DB3089550916D0000E0502E01E0402E53
:100520009ED066D050916E0004E0502E01E0402E27
:1005300096D05ED050916F0008E0502E01E0402E22
:100540008ED056D0509170000CE0502E01E0402E1D
:1005500086D04ED0089501E0402E00E0502E7FD08E
:100560003091600045D03091610042D030916200FE
:100570003FD00895ABD0392D3BD03B2D39D00895D5
:10058000A5D0382F35D00895A1D059D10000F0E082
:10059000E72F41D000000000CDD1F6CF089569E9E2
:1005A00095D014D00027502E0395402E58D0342FCC
:1005B0001FD0BAD108958AD065EA08D0B5D1B4D198
:1005C000B3D1089565E002D0AFD1089586D177D137
:1005D00099DF303019F085D06395FACF8BD108952B
:1005E0007CD16DD18FDFF0E0E32F15D083D108955A
:1005F00074D165D13F9332953F70305D3A3308F046
:10060000395F6FD03F913F70305D3A3308F0395F0A
:1006100068D070D1089561D152D1F33058F0E83EDE
:1006200048F03FE288943395E85EF340E0F759D014
:10063000E851FC5F3FE288943395E456F040E0F7E0
:1006400050D0EC59FF5F3FE288943395EA50E8F7C9
:1006500048D0E65F3E2F305D44D04CD108953DD167
:100660002ED1A0D0BAD0332700E010EC4012310FC9
:10067000350D5527CCD036FDC6D035FDC0D034FD64
:10068000BAD0FFD094D0552733FDC1D032FDBBD0B6
:1006900031FDB5D030FDAFD0F4D089D02BD1089545
:1006A0001CD10DD17FD05F70B2D0ADD096D07FD0AD
:1006B0005F707DD01FD1089510D101D173D05F70CC
:1006C0008CD075D09CD073D015D1089506D1F7D0B9
:1006D00069D05F7082D06BD08ED069D00BD1ECDF47
:1006E000089560D055277FD0A0D037FD90D036FD3B
:1006F0008AD035FD84D034FD7ED0C3D058D0552764
:1007000072D093D033FD83D032FD7DD031FD77D0D0
:1007100030FD71D0B6D04BD008950CD10BD1DDD0C7
:10072000CED085D068D06BD06CD06FD056D0A9D049
:100730003ED00ED10DD10CD1A4D039D012D1A1D040
:1007400036D00FD156D09DD032D00BD158D099D0C1
:100750002ED05DD052D095D02AD024D056D091D072
:1007600026D055D08ED023D01DD04FD08AD01FD0C8
:1007700042D087D01CD016D03CD083D018D043D0E4
:100780003ED07FD014D00ED03CD037D07AD00FD00E
:100790003ED039D034D02FD048D073D008D0AAD092
:1007A000C9D00895D5D0D4D0D3D0D2D008953BD0DD
:1007B00068D0000000000000000033D062D008952F
:1007C00034D08BD07CD05DD095D0089530D02DD052
:1007D00084D075D056D08ED008951BD01ED00895E9
:1007E00018D01DD0089517D018D0089514D017D060
:1007F00008955F7E0895506108955F7D0895506269
:1008000008955F7B0895506408955F770895506858
:1008100008955E7F0895516008955D7F0895526048
:1008200008955B7F08955460089558600895577F38
:10083000089553D044D05FEF24D05CD00895369A09
:10084000349BFECF75B108953E9A3F9A399A389AF3
:100850003D9A329A319A379A369A08954FE73DD0A9
:100860002ED00F3F29F400274150403009F0F7CF38
:1008700041D0089504E806BF06B707FFFDCF53B186
:10088000089506B707FFFDCF53B904E806BF06B7C2
:1008900007FFFDCF01B1087F083209F07AD0089533
:1008A000042F000F016003B904E806BF06B707FF75
:1008B000FDCF01B1087F003409F06BD00895042FFB
:1008C000000F03B904E806BF06B707FFFDCF01B16B
:1008D000087F083109F00FEF089504EA06BF06B754
:1008E00007FFFDCF01B1087F083019F0003109F092
:1008F00050D0089504E906BF08950CE000B901B195
:10090000006001B9089510D00FD00ED00DD00CD0DA
:100910000BD00AD009D008D007D0089505D004D054
:1009200003D002D001D0089505D004D003D002D066
:1009300001D0089502D001D008950AD009D008D07E
:1009400007D006D005D004D003D002D001D008953E
:1009500002D001D0089505D004D003D002D001D038
:10096000089524E02030F1F7089501E003BF0BE97A
:1009700002BF01E009BF78940895F8940F930FB770
:100980000F930BE902BF21500F910FBF0F91789485
:100990001895BE9AC698C8DFC69AC6DFFBCF0895E1
:0609A0001895F894FFCF4A
:00000001FF
