:1000000012C019C018C017C016C015C014C013C044
:1000100012C0E1C410C00FC00EC00DC00CC00BC098
:100020000AC009C008C011241FBECFE5D4E0DEBF5E
:10003000CDBF02D0E4C4E2C4C6D4AAD48CD43CD48C
:10004000403009F4D4D423D496D32CD40ED2FFD18B
:1000500018D0CDD4FFCF089567D368EAE4D201E089
:10006000402E0027502E7DD45FD36CEADCD25CD3C7
:1000700061EBD9D26EEBD7D26DECD5D26CEDD3D289
:1000800008950FEFA02E00E0902EB02E4DD360E12A
:10009000CAD278D402D44DD28A15D9F3A82E813091
:1000A00009F40AC0823009F40EC0833009F412C08A
:1000B000843009F413C0EDDF01E0901618F0092D2B
:1000C0000A95902E12D001E0B01618F00B2D0A956B
:1000D000B02E0BD00B2D0395B02E07D004E0901658
:1000E00018F4092D0395902E00D0803009F47FD4A8
:1000F00000E0901201C00DC00395901201C01FC016
:100100000395901201C040C00395901201C045C0F4
:100110006ED400E0B01639F00395B01641F00395A7
:10012000B01649F064D400D360E17DD2B2CFFCD2E6
:100130006DE179D2AECFF8D269E275D2AACF00E0F4
:10014000B01639F001E0B01651F002E0B016B1F08F
:100150004ED4EAD260E167D2E0D02CD29ACF002709
:10016000502E0395402EA9D26EE55DD205D4DCD287
:100170006DE159D2092D0A95902E8BCFD5D262E32D
:1001800052D2ADD0F6D185CFCFD20027402E5B2CF6
:1001900094D261E448D2EDD17CCF0B2D003091F0A8
:1001A000013089F0043081F0053079F0083071F0C9
:1001B000093069F00C3061F00D3059F002E0B02EDA
:1001C000902E67CF07C00DC00DC00DC00DC00DC073
:1001D0000DC00DC00091640010E1010F0093640098
:1001E000EDCFECCFEBCFEACFE9CFE8CFE7CFE6CF4B
:1001F000089593D0309160003E130FC0309161009C
:10020000333919F0353929F008C0309162003730A0
:1002100004C0309162003F3000C00895AA9AA99AA4
:10022000C69ACDD3CCD3909A07E0A7D00A95E9F728
:10023000C298C398C498A898C2D3909812C0C29884
:10024000C398C498A898C69A9098B9D30AC0C6987B
:10025000909AC298C398C498A898C69AB0D3909818
:10026000A5D30895DBDF50E892D0A0D3A998A99A2E
:100270008FD3B9D00895D2DF5091640000E010E030
:100280000FD05091650001E010E00AD05091660057
:1002900000E011E005D05091670019D0A4D0089576
:1002A00050E475D05FEF82D00000003011F0A89AC2
:1002B00001C0A898103011F0919A01C09198A998A6
:1002C00000000000A99A64D3A8989198089550E27C
:1002D0005ED05FEF6BD0A998A99A5AD308959EDF9C
:1002E00054E055D0AA989198A89832D050936400C1
:1002F000AA98919AA89A2CD050936500AA98919A9E
:10030000A89826D050936600AA989198A89A20D0D1
:1003100050936700AA9A67D0089580DF00E0802E8E
:100320000ED05093600001E0802E09D05093610000
:1003300002E0802E04D05093620055D0089558E01A
:1003400026D0582D29D0AA98A89802D0AA9A089504
:1003500050D000B316B3552702FD506803FD50641A
:1003600017FD506205FD506106FD586007FD5460A1
:1003700010FD526011FD5160089518D3C59A16D32F
:10038000C598089513D3C29A11D3C2980895C39AF9
:10039000C498A89815D00895C398C498A89810D068
:1003A0000895C398C498A89A0BD00895C398C49A86
:1003B000A89806D00895C398C49AA89A01D0089521
:1003C00029D050FDC19A51FDC09A52FD979A53FD14
:1003D000969A54FD959A55FDC79A56FD939A57FDE6
:1003E000929ACBDF0895E2D204D025D0909AC69895
:1003F0000895B998B8988F988E988D98BF988B98D3
:100400008A98C198C098979896989598C798939805
:1004100092980895B99AB89A8F9A8E9A8D9ABF9A9F
:100420008B9A8A9AC198C098979896989598C798E9
:10043000939892980895AA98A998A898C498C39850
:10044000C2989198C598909AC69894980895A29A3F
:10045000A19AA09ABC9ABB9ABA9A899ABD9A889A8C
:10046000BE9A8C98C6DFE7DF089560E07AD005E594
:10047000301711F00ED00CC061E073D0C32E62E0D3
:1004800070D0D32E63E06DD0E32E64E06AD0F32EFB
:10049000089503D27A50872F47D163E7C4D0FDD1A6
:1004A000781710F075D2FBCFB5D0C72E71D27A5025
:1004B000872F3AD16DE7B7D0F0D1781710F068D216
:1004C000FBCFA8D0D72E64D27A50872F2DD166E8E3
:1004D000AAD0E3D1781710F05BD2FBCF9BD0E72EE8
:1004E00057D27A50872F20D16FE89DD0D6D1781778
:1004F00010F04ED2FBCF8ED0F72E4AD20000DC1483
:1005000008F075D2ED1408F072D2FE1408F06FD224
:10051000000061E03C2D1CD062E03D2D19D063E06D
:100520003E2D16D064E03F2D13D060E035E510D0AD
:10053000089588277A507C1550F484E07D1538F4AE
:1005400083E07E1520F482E07F1508F481E00895B1
:10055000E199FECF00270FBB6EBB3DBBE29AE19A4B
:100560000895E199FECF00270FBB6EBBE09A3DB323
:10057000089500E0502E0395402E9FD030916400E6
:1005800064D004E0502E01E0402E97D030916500F9
:100590005CD008E0502E01E0402E8FD030916600F4
:1005A00054D00CE0502E01E0402E87D030916700EF
:1005B0004CD0089501E0402E00E0502E7ED03091C6
:1005C000600043D03091610040D0309162003DD056
:1005D0000895AAD0392D39D03B2D37D00895A4D015
:1005E000382F33D00895A0D058D10000F0E0E72F85
:1005F0003FD000000000CCD1F6CF089569E994D037
:1006000012D00027502E0395402E57D0342F1DD0E6
:10061000B9D1089589D065EA06D0B4D1089565E0CE
:1006200002D0B0D1089587D178D19BDF303019F056
:1006300086D06395FACF8CD108957DD16ED191DFAC
:10064000F0E0E32F15D084D1089575D166D13F93A2
:1006500032953F70305D3A3308F0395F70D03F918A
:100660003F70305D3A3308F0395F69D071D1089539
:1006700062D153D108EEE01703E0F00748F03FE203
:1006800088943395E85EF340E0F7E851FC4F57D08B
:100690003FE288943395E456F040E0F7EC59FF4F81
:1006A0004ED03FE288943395EA50E8F7E65F47D0B2
:1006B0003E2F305D44D04CD108953DD12ED1A0D0F5
:1006C000BAD0332700E010EC4012310F350D55271A
:1006D000CCD036FDC6D035FDC0D034FDBAD0FFD069
:1006E00094D0552733FDC1D032FDBBD031FDB5D0FC
:1006F00030FDAFD0F4D089D02BD108951CD10DD1CD
:100700007FD05F70B2D0ADD096D07FD05F707DD0FB
:100710001FD1089510D101D173D05F708CD075D0E6
:100720009CD073D015D1089506D1F7D069D05F70F1
:1007300082D06BD08ED069D00BD1ECDF089560D021
:1007400055277FD0A0D037FD90D036FD8AD035FD1B
:1007500084D034FD7ED0C3D058D0552772D093D0EA
:1007600033FD83D032FD7DD031FD77D030FD71D0A7
:10077000B6D04BD008950CD10BD1DDD0CED085D0E2
:1007800068D06BD06CD06FD056D0A9D03ED00ED1EF
:100790000DD10CD1A4D039D012D1A1D036D00FD1E7
:1007A00056D09DD032D00BD158D099D02ED05DD01C
:1007B00052D095D02AD024D056D091D026D055D022
:1007C0008ED023D01DD04FD08AD01FD042D087D01A
:1007D0001CD016D03CD083D018D043D03ED07FD090
:1007E00014D00ED03CD037D07AD00FD03ED039D0F4
:1007F00034D02FD048D073D008D0AAD0C9D0089513
:10080000D5D0D4D0D3D0D2D008953BD068D000007A
:1008100000000000000033D062D0089534D08BD0A7
:100820007CD05DD095D0089530D02DD084D075D0B7
:1008300056D08ED008951BD01ED0089518D01DD04C
:10084000089517D018D0089514D017D008955F7E5A
:100850000895506108955F7D0895506208955F7B0B
:100860000895506408955F770895506808955E7FF5
:100870000895516008955D7F0895526008955B7FEB
:1008800008955460089558600895577F089553D08F
:1008900044D05FEF24D05CD00895369A349BFECFCD
:1008A00075B108953E9A3F9A399A389A3D9A329A8C
:1008B000319A379A369A08954FE73DD02ED00F3FA0
:1008C00029F400274150403009F0F7CF41D0089576
:1008D00004E806BF06B707FFFDCF53B1089506B77A
:1008E00007FFFDCF53B904E806BF06B707FFFDCFEA
:1008F00001B1087F083209F07AD00895042F000F63
:10090000016003B904E806BF06B707FFFDCF01B1D8
:10091000087F003409F06BD00895042F000F03B94D
:1009200004E806BF06B707FFFDCF01B1087F083115
:1009300009F00FEF089504EA06BF06B707FFFDCFE1
:1009400001B1087F083019F0003109F050D0089546
:1009500004E906BF08950CE000B901B1006001B9D7
:10096000089510D00FD00ED00DD00CD00BD00AD0DF
:1009700009D008D007D0089505D004D003D002D004
:1009800001D0089505D004D003D002D001D008953D
:1009900002D001D008950AD009D008D007D006D0DF
:1009A00005D004D003D002D001D0089502D001D0E8
:1009B000089505D004D003D002D001D0089524E0DA
:1009C0002030F1F7089501E003BF0BE902BF01E019
:1009D00009BF78940895F8940F930FB70F930BE91C
:1009E00002BF21500F910FBF0F9178941895BE9AB6
:1009F000C698C8DFC69AC6DFFBCF08951895F8944D
:020A0000FFCF26
:00000001FF
