:1000000012C019C018C017C016C015C014C013C044
:1000100012C059C410C00FC00EC00DC00CC00BC020
:100020000AC009C008C011241FBECFE5D4E0DEBF5E
:10003000CDBF02D05CC45AC43ED422D40AD4BAD3B1
:10004000403009F44CD499D30CD3AAD3CCD1BDD130
:1000500016D045D4FFCF0895DED268EA7AD2C5D251
:100060006CEA77D2D8D261EB74D2BFD26EEB71D288
:10007000BCD26DEC6ED2B9D26CED6BD208950FEF9D
:10008000A02E00E0902EB02EC6D260E162D2F2D354
:100090007AD30DD28A15D9F3A82E813009F40AC07B
:1000A000823009F40EC0833009F412C0843009F4A0
:1000B00016C0EDDF01E0901618F0092D0A95902E7C
:1000C00015D001E0B01618F00B2D0A95B02E0ED009
:1000D00002E0B01618F40B2D0395B02E07D002E005
:1000E000901618F4092D0395902E00D0803009F455
:1000F000F6D300E0901201C009C00395901201C030
:100100001BC00395901201C029C0E9D300E0B016CE
:1001100039F00395B01641F00395B01649F0DFD3DE
:100120007AD260E116D2B3CF76D26DE112D2AFCFE0
:1001300072D269E20ED2ABCF00E0B01621F002E03D
:10014000B01641F0CCD367D260E103D24ED2A3D037
:10015000CED19DCF60D262E3FCD199CF02E0B01640
:1001600009F095CF58D26DECF4D191CF089593D08A
:10017000309160003E130FC030916100333919F0A7
:10018000353929F008C030916200373004C0309111
:1001900062003F3000C00895AA9AA99AC69A87D3F0
:1001A00086D3909A07E0A7D00A95E9F7C298C3983A
:1001B000C498A8987CD3909812C0C298C398C49849
:1001C000A898C69A909873D30AC0C698909AC29875
:1001D000C398C498A898C69A6AD390985FD3089594
:1001E000DBDF50E892D05AD3A998A99A49D3B9D065
:1001F0000895D2DF50916D0000E010E00FD05091D3
:100200006E0001E010E00AD050916F0000E011E0B4
:1002100005D05091700019D0A4D0089550E475D045
:100220005FEF82D00000003011F0A89A01C0A898BA
:10023000103011F0919A01C09198A9980000000027
:10024000A99A1ED3A8989198089550E25ED05FEFC6
:100250006BD0A998A99A14D308959EDF54E055D085
:10026000AA989198A89832D050936D00AA98919A24
:10027000A89A2CD050936E00AA98919AA89826D04C
:1002800050936F00AA989198A89A20D0509370002C
:10029000AA9A67D0089580DF00E0802E0ED0509398
:1002A000600001E0802E09D05093610002E0802EB2
:1002B00004D05093620055D0089558E026D0582DB0
:1002C00029D0AA98A89802D0AA9A089550D000B32D
:1002D00016B3552702FD506803FD506417FD5062A8
:1002E00005FD506106FD586007FD546010FD526029
:1002F00011FD51600895D2D2C59AD0D2C598089503
:10030000CDD2C29ACBD2C2980895C39AC498A89865
:1003100015D00895C398C498A89810D00895C3988C
:10032000C498A89A0BD00895C398C49AA89806D0E8
:100330000895C398C49AA89A01D0089529D050FD71
:10034000C19A51FDC09A52FD979A53FD969A54FD59
:10035000959A55FDC79A56FD939A57FD929ACBDF11
:1003600008959CD204D025D0909AC6980895B99843
:10037000B8988F988E988D98BF988B988A98C198C6
:10038000C098979896989598C7989398929808953A
:10039000B99AB89A8F9A8E9A8D9ABF9A8B9A8A9A9E
:1003A000C198C098979896989598C798939892985E
:1003B0000895AA98A998A898C498C398C2989198A3
:1003C000C598909AC69894980895A29AA19AA09ACE
:1003D000BC9ABB9ABA9A899ABD9A889ABE9A8C9806
:1003E000C6DFE7DF089560E07AD005E5301711F049
:1003F0000ED00CC061E073D0C32E62E070D0D32E5B
:1004000063E06DD0E32E64E06AD0F32E0895BBD193
:100410007A50872F00D163E79CD0B5D1781710F0C0
:100420002FD2FBCF8DD0C72E2BD27A50872FF3D06F
:100430006DE78FD0A8D1781710F022D2FBCF80D0F3
:10044000D72E1ED27A50872FE6D066E882D09BD175
:10045000781710F015D2FBCF73D0E72E11D27A5057
:10046000872FD9D06FE875D08ED1781710F008D2C9
:10047000FBCF66D0F72E04D20000DC1408F02FD298
:10048000ED1408F02CD2FE1408F029D2000061E02F
:100490003C2D1CD062E03D2D19D063E03E2D16D0DE
:1004A00064E03F2D13D060E035E510D00895882733
:1004B0007A507C1550F484E07D1538F483E07E1585
:1004C00020F482E07F1508F481E00895E199FECFE1
:1004D00000270FBB6EBB3DBBE29AE19A0895E199FC
:1004E000FECF00270FBB6EBBE09A3DB3089530915D
:1004F000600044D03091610041D0309162003ED024
:10050000089589D07ED0392D39D03B2D37D008952C
:1005100082D077D0382F32D008957DD034D10000EA
:10052000F0E0E72F3ED000000000AAD1F6CF0895FA
:1005300069E967D00ED059D0342F20D09BD10895CF
:1005400065EA53D006D096D1089565E002D092D1E5
:1005500008956FD160D1C3DF303019F066D0639554
:10056000FACF74D187D186D185D1089562D153D184
:10057000B6DFF0E0E32F15D069D108955AD14BD101
:100580003F9332953F70305D3A3308F0395F4DD07C
:100590003F913F70305D3A3308F0395F46D056D115
:1005A000089547D138D1F33058F0E83E48F03FE2A3
:1005B00088943395E85EF340E0F737D0E851FC5F6C
:1005C0003FE288943395E456F040E0F72ED0EC59A2
:1005D000FF5F3FE288943395EA50E8F726D0E65F64
:1005E0003E2F305D22D032D1089523D114D17ED058
:1005F0005F70B1D0ACD095D07ED05F707CD026D16A
:10060000089517D108D172D05F708BD074D09BD071
:1006100072D01CD108950DD1FED068D05F7081D00A
:100620006AD08DD068D012D1089560D055277FD080
:10063000A0D037FD90D036FD8AD035FD84D034FD72
:100640007ED0CBD058D0552772D093D033FD83D0F5
:1006500032FD7DD031FD77D030FD71D0BED04BD092
:1006600008950ED10DD1E5D0D6D085D068D06BD00D
:100670006CD06FD056D0B1D03ED010D10FD10ED1AA
:10068000ACD039D014D1A9D036D011D156D0A5D004
:1006900032D00DD158D0A1D02ED05DD052D09DD027
:1006A0002AD024D056D099D026D055D096D023D059
:1006B0001DD04FD092D01FD042D08FD01CD016D09A
:1006C0003CD08BD018D043D03ED087D014D00ED0A1
:1006D0003CD037D082D00FD03ED039D034D02FD0BC
:1006E00048D07BD008D0B2D0CBD00895D7D0D6D0C8
:1006F000D5D0D4D008953BD070D0000000000000C9
:10070000000033D06AD0089534D093D084D065D01F
:100710009DD0089530D02DD08CD07DD05ED096D095
:1007200008951BD01ED0089518D01DD0089517D05D
:1007300018D0089514D017D008955F7E08955061A1
:1007400008955F7D0895506208955F7B0895506419
:1007500008955F770895506808955E7F0895516009
:1007600008955D7F0895526008955B7F08955460F9
:10077000089558600895577F08955BD04CD05FEF7F
:100780002CD064D00895369A349BFECF74B1769500
:10079000769505B103700295000F000F702B089538
:1007A000A3983E9A3F9A399A389A329A319A379A50
:1007B000369A08954FE73DD02ED00F3F29F40027F9
:1007C0004150403009F0F7CF41D0089504E806BF0A
:1007D00006B707FFFDCF53B1089506B707FFFDCF5A
:1007E00053B904E806BF06B707FFFDCF01B1087F84
:1007F000083209F074D00895042F000F016003B986
:1008000004E806BF06B707FFFDCF01B1087F00343B
:1008100009F065D00895042F000F03B904E806BF5E
:1008200006B707FFFDCF01B1087F083109F00FEFD0
:10083000089504EA06BF06B707FFFDCF01B1087FA0
:10084000083019F0003109F04AD0089504E906BFD4
:1008500008950CE000B901B1006001B908950AD013
:1008600009D008D007D006D005D004D003D002D0DC
:1008700001D0089505D004D003D002D001D008954E
:1008800002D001D008950AD009D008D007D006D0F0
:1008900005D004D003D002D001D0089502D001D0F9
:1008A000089505D004D003D002D001D0089524E0EB
:1008B0002030F1F7089501E003BF0BE902BF01E02A
:1008C00009BF78940895F8940F930FB70F930BE92D
:1008D00002BF21500F910FBF0F9178941895BE9AC7
:1008E000C698C8DFC69AC6DFFBCF08951895F8945E
:0208F000FFCF38
:00000001FF
