:1000000093C0ADC0ACC0ABC0AAC0A9C0A8C0A7C0B7
:10001000A6C0E0C4A4C0A3C0A2C0A1C0A0C09FC08D
:100020009EC09DC09CC06E616E00696E66000040FF
:100030007A10F35A00A0724E18090010A5D4E800F7
:1000400000E87648170000E40B54020000CA9A3B0F
:10005000000000E1F5050000809698000000404295
:100060000F000000A0860100000010270000000023
:10007000E803000000006400000000000A00000027
:1000800000000100000000002C76D888DC674F08D3
:1000900023DFC1DFAE59E1B1B796E5E3E453C63AD9
:1000A000E651997696E8E6C28426EB898C9B62ED50
:1000B000407C6FFCEFBC9C9F40F2BAA56FA5F4900A
:1000C000055A2AF75C936B6CF9676DC11BFCE0E481
:1000D0000D47FEF520E6B500D0ED902E03009435D7
:1000E00077050080841E080000204E0A000000C82A
:1000F0000C333333330F986E12831141EF8D21147B
:10010000893BE65516CFFEE6DB18D1844B381BF74A
:100110007C1D901DA4BBE424203284725E228100E9
:10012000C9F124ECA1E53D2711241FBECFE5D4E0A1
:10013000DEBFCDBF11E0A0E6B0E0E8E1FEE102C025
:1001400005900D92A635B107D9F721E0A6E5B1E0FB
:1001500001C01D92AC37B207E1F754D45BCE50CF4B
:10016000A0E1B0E0E5EBF0E039CC7C011B016A01D5
:10017000FC0117821682838181FF2AC39E012F5FB3
:100180003F4F3901F7019381F10193FD859193FF71
:1001900081911F01882309F417C3853239F493FD37
:1001A000859193FF81911F01853231F4B70190E071
:1001B00053DD56016501E6CF10E0512C912CFFE193
:1001C000F915D8F08B3279F038F4803279F0833237
:1001D000A1F4F92DF0612EC08D3261F0803369F405
:1001E000292D21602DC0392D3260932E892D8460F8
:1001F000982E2AC0E92DE86015C097FC2DC020ED8F
:10020000280F2A3088F496FE06C03AE0139F200D8E
:100210001124122F19C08AE0589E200D1124522E4D
:10022000E92DE0629E2E10C08E3231F496FCCCC2D5
:10023000F92DF0649F2E08C08C3621F4292D2068FA
:10024000922E02C0883641F4F10193FD859193FF0F
:1002500081911F018111B3CF9BEB980F933020F454
:10026000992D9061805E07C09BE9980F933008F04C
:1002700059C1992D9F7E96FF16E09F73992E853662
:1002800019F49064992E08C0863621F4392F30680D
:10029000932E02C01111115097FE07C01C3350F469
:1002A00044244394410E27E00BC0183038F027E077
:1002B00017E005C027E09CE3492E02C0212F412C06
:1002C000560184E0A80EB11CF60160817181828123
:1002D0009381042DA301D2DB6C01F981FC87F0FF2F
:1002E00002C0F3FF06C091FC06C092FE06C000E209
:1002F00005C00DE203C00BE201C000E08C858C70EC
:1003000019F0011143C280C297FE10C04C0CFC854D
:10031000F4FF04C08A81813309F44A94141474F5FB
:1003200028E0241578F588E0482E2CC096FC2AC0D9
:10033000812F90E08C159D059CF03CEFC3163FEF9C
:10034000D30674F0892D8068982E0AC0E2E0F0E0B0
:10035000EC0FFD1FE10FF11D8081803319F4115066
:100360001111F4CF97FE0EC044244394410E812F07
:1003700090E0C816D9062CF41C1904C044244394F8
:1003800001C010E097FE06C01C141D0434F4C60121
:10039000019605C085E090E002C081E090E0011187
:1003A0000196112331F0212F30E02F5F3F4F820F54
:1003B000931F252D30E08217930714F4581A01C0BB
:1003C000512C892D897041F4552031F0B70180E21C
:1003D00090E042DC5A94F8CF002321F0B701802F3F
:1003E00090E03ADC93FC08C0552031F0B70180E37F
:1003F00090E032DC5A94F8CF97FE4AC04601D7FE0F
:1004000002C0812C912CC60188199909F301E80FCB
:10041000F91FFE87ED87960124193109388B2F8744
:10042000012F10E01195019511093FEF83169306F6
:1004300021F4B7018EE290E00FDCC814D9044CF02F
:100440008F8598898815990524F4ED85FE8581812D
:1004500001C080E3F1E08F1A91082D853E852F5F62
:100460003F4F3E872D878016910624F0B70190E01C
:10047000F3DBDBCFC814D90441F49A81963320F41E
:10048000953319F43C8534FF81E3B70190E048C00F
:100490008A81813319F09C859F7E9C87B70190E00B
:1004A000DBDB111105C094FC16C085E690E015C099
:1004B000B7018EE290E0D0DB1E5F82E001E0080F22
:1004C000F301E80FF11D8081B70190E0C5DB802FBB
:1004D0000113F4CFE8CF85E490E0B701BDDBD7FC92
:1004E00006C0C114D10441F4EC85E4FF05C0D194E9
:1004F000C194D1088DE201C08BE2B70190E0ACDB82
:1005000080E32AE0C216D1042CF08F5FFAE0CF1A04
:10051000D108F7CFB70190E09FDBB701C601C096C5
:100520009BDB49C1833631F0833779F0833509F09D
:1005300052C01FC0560132E0A30EB11CF6018081EB
:10054000898301E010E0630111C05601F2E0AF0EB3
:10055000B11CF601C080D18096FE03C0612F70E00F
:1005600002C06FEF7FEFC6016CDB8C01F92DFF77C6
:1005700013C0560122E0A20EB11CF601C080D1804A
:1005800096FE03C0612F70E002C06FEF7FEFC601DF
:100590004DDB8C01F92DF0689F2EF3FD18C0852DE1
:1005A00090E00817190798F4B70180E290E054DB57
:1005B0005A94F5CFF60197FC859197FE81916F01D2
:1005C000B70190E049DB51105A940150110901150F
:1005D000110581F7F0C0843611F0893659F55601BE
:1005E00097FE09C024E0A20EB11CF6016081718162
:1005F000828193810AC0F2E0AF0EB11CF6016081E6
:100600007181072E000C880B990BF92DFF769F2E18
:1006100097FF09C090958095709561957F4F8F4F9A
:100620009F4FF0689F2E2AE030E0A30170DBC82EB8
:10063000C6183EC0092D853721F40F7E2AE030E030
:100640001DC0097F8F3691F018F4883559F0BCC071
:10065000803719F0883711F0B7C0006104FF09C076
:10066000046007C094FE08C0066006C028E030E0C1
:1006700005C020E130E002C020E132E0560107FF72
:1006800009C084E0A80EB11CF601608171818281ED
:10069000938108C0F2E0AF0EB11CF6016081718158
:1006A00080E090E0A30133DBC82EC6180F77902EB0
:1006B00096FE0BC0092D0E7FC11650F494FE0AC0A1
:1006C00092FC08C0092D0E7E05C0DC2C092D03C04C
:1006D000DC2C01C0D12E04FF0DC0FE01EC0DF11D7C
:1006E0008081803311F4097E09C002FF06C0D394D3
:1006F000D39404C0802F867809F0D39403FD10C0F2
:1007000000FF06C01C2DD51478F4150D1D190CC062
:10071000D51450F4B70180E290E09EDAD394F8CF7C
:10072000D51410F45D1801C0512C04FF0FC0B7019F
:1007300080E390E091DA02FF16C001FD03C088E774
:1007400090E002C088E590E0B7010CC0802F867869
:1007500051F001FF02C08BE201C080E207FD8DE293
:10076000B70190E079DAC11630F4B70180E390E088
:1007700073DA1150F8CFCA94F301EC0DF11D8081AA
:10078000B70190E069DAC110F6CF15C0F4E0F515B5
:1007900050F584E0581A93FE1EC0011125C02C8527
:1007A00023FF27C006E210E0392D3071932EF801A7
:1007B0008491811121C0552009F4FCCCB70180E25D
:1007C00090E04ADA5A94F7CFF7018681978123C0E7
:1007D0008FEF9FEF20C0B70180E290E03DDA5A949E
:1007E0005110F9CFDACF512CB701802F90E034DAD5
:1007F000D6CF0AE210E0D8CF91108052B70190E036
:100800002BDA0F5F1F4FD3CF23E0251510F483E0C1
:10081000C1CF512CC4CF6096E2E1FCC82F923F9229
:100820004F925F926F927F928F929F92AF92BF9200
:10083000CF92DF92EF92FF920F931F93CF93DF93AC
:10084000109258011092570110925601C1E0D0E069
:1008500010E0F12CE12CD12CC12CB12CA12C81EC7D
:10086000882E80E0982E66E571E08C2F7CD8209150
:10087000560120905701A091580130E040E050E02F
:1008800060E070E080E090E000E1DFD8322E432E9F
:10089000542E652E762EB72FF82FE92F222D30E01B
:1008A00040E050E060E070E080E090E008E0CDD80B
:1008B000232934294529562967297B2B8F2B9E2BE9
:1008C0002A2BD22B132BF42AE52AD62AC72AB82A98
:1008D000A92A2D2F312F4F2D5E2D6D2D7C2D8B2D87
:1008E0009A2D2938E3E93E07EEE14E0751056105EF
:1008F000710581059105E9F12938E3E93E07EEE14B
:100900004E075105610571058105910509F068F4EF
:10091000273033494E415105610571058105910527
:10092000D1F581E08093630127C02D2F312F4F2D0A
:100930005E2D6D2D7C2D8B2D9A2D2F30E5E93E07F8
:10094000EEE14E0751056105710581059105D9F06C
:10095000243135494E4151056105710581059105E7
:10096000D1F492E090936301C0936F0182ED90E027
:1009700016C091E090936301C0936F01909267005D
:100980008092660010C0E2E0E0936301C0936F01C3
:1009900089EC90E004C01092630182E091E09093B2
:1009A000670080936600CF5FC43009F05CCFDF91B1
:1009B000CF911F910F91FF90EF90DF90CF90BF905C
:1009C000AF909F908F907F906F905F904F903F90EF
:1009D0002F9008951F920F920FB60F9211248F93AC
:1009E00081E08093640112BE78948F910F900FBEC6
:1009F0000F901F90189512BE85E083BF81E089BFDC
:100A000078940895C3D7F7DFCED772D548D48093B2
:100A10006001C7D42AED30E040E060E080916001E1
:100A2000E5D480916001282F40E066E0EBD42EED04
:100A300030E041E060E080916001D8D418D49C019E
:100A400041E066E08091600107D52FE380E19FE0FF
:100A5000215080409040E1F700C0000002E711E023
:100A600024E731E040E751E066E771E08091600102
:100A7000C4D381E080936F0180916001A7D423EEFD
:100A800030E040E060E080916001B0D420EF30E0E1
:100A900041E060E080916001A9D42FEB86E498E00A
:100AA000215080409040E1F700C000002FEF30E07F
:100AB00041E063E08091600199D42FEF80E995E0F7
:100AC000215080409040E1F700C000002BE031E071
:100AD00041E063E08091600189D42FE380E19FE0F1
:100AE000215080409040E1F700C00000C0E144E0A8
:100AF00068E080916001E2D487E799E60197F1F719
:100B000000C00000C15099F780916301811113C0AA
:100B1000809160015BD427E131E040E060E08091AA
:100B2000600164D49FE320E18FE091502040804039
:100B3000E1F700C000008091600148D424EB30E070
:100B400040E060E08091600151D48091640188238D
:100B500009F410C23AD79093620180936101009129
:100B600072011091730120917401309175014091CF
:100B7000700150917101609176017091770101D2FD
:100B8000C82F80935F0180916800C81709F4F2C1F3
:100B9000C0936800C230D1F118F4C13041F02CC1CB
:100BA000C33009F460C0C43009F484C025C1809109
:100BB0005E01813011F482E035C0823039F52DE7D5
:100BC00030E041E060E08091600110D423E730E044
:100BD00041E060E08091600109D4609163018091FF
:100BE0006F0149E551E080D687EE93E00197F1F778
:100BF00000C000006091630180916F0149E551E000
:100C00008DD610925D01C0935E01F6C080915E01A9
:100C1000811106C080915D01833048F082E020C0E0
:100C2000813051F480935D0110925E01E5C088230C
:100C300009F4E2C0815014C0823009F0DDC0809117
:100C40005D01882309F4D8C0982F977F943039F03C
:100C50009FEF980F973019F090935D01CDC08350AE
:100C600080935D01C9C080915E0181110EC08091A9
:100C70005D01811102C081E0F3CF813009F0C1C074
:100C8000809163018111CACFBCC0823009F0B9C024
:100C900080915D018D3008F0B4C0982F9B7F91301A
:100CA00039F091E0980F9A3019F090935D01A9C046
:100CB0008D5FD6CF80915E0181112AC090915D0138
:100CC000911106C080916F0166E571E04CD694C029
:100CD000913081F429E630E041E060E080916001EC
:100CE00085D380916F01EBD599DD10925E01109252
:100CF0005D0182C0923009F045C06091630180912E
:100D00006F0149E551E00AD680915E018F5F05C011
:100D1000813031F410925D0182E080935E016CC0FD
:100D2000823081F590915D01911104C0809159014B
:100D3000805F0AC0913079F4809159018F708F30B3
:100D400031F4809159018F508093590155C08091A1
:100D500059018F5FF9CF943021F480915A01805F5F
:100D60000AC0953079F480915A018F708F3031F438
:100D700080915A018F5080935A013EC080915A0150
:100D80008F5FF9CF909163019230D9F48230C9F529
:100D900080915D01883021F480915B01805F0AC001
:100DA000893089F480915B018F708F3031F48091AC
:100DB0005B018F5080935B011FC080915B018F5F4F
:100DC000F9CF8230F1F480915D018C3029F480916B
:100DD0005C01805F806C0EC08D3099F480915C0165
:100DE0008F708F3021F480915C018F5003C080910F
:100DF0005C018F5F80935C0180915F01882309F41F
:100E0000B9C080916001E2D280915E0181112DC054
:100E100080915D0181112DC024EB30E040E060E065
:100E200080916001E3D280915F018430F1F42091E0
:100E3000560141E060E080916001E4D220915701C9
:100E400041E062E080916001DDD22091580141E0F3
:100E500064E080916001D6D22091660030916700F5
:100E600041E067E080916001C1D280915E01811113
:100E70000BC080915D01813039F428EA30E040E018
:100E800060E080916001B2D280915E0181110BC05F
:100E900080915D01823039F42FE930E040E060E07C
:100EA00080916001A3D280915E01813079F520E9C3
:100EB00030E040E060E08091600198D220915901DB
:100EC00041E060E0809160019DD220915A0141E0B3
:100ED00064E08091600196D280916301823041F498
:100EE00020915B0141E068E0809160018BD207C0F6
:100EF00028E031E041E068E08091600177D2209104
:100F00005C0141E06CE0809160017CD280915E01E7
:100F1000823081F52EE830E040E060915D01809103
:100F2000600164D22091590141E060E0809160014C
:100F300069D220915A0141E064E08091600162D25F
:100F400080916301823041F420915B0141E068E0CF
:100F50008091600157D207C028E031E041E068E0AD
:100F60008091600143D220915C0141E06CE080916E
:100F7000600148D28FE097E20197F1F700C00000CE
:100F8000E4CD0F931F93FB01F297E817F90728F4BC
:100F90006E5C7F4F8617970718F1BA01625371098B
:100FA0006817790728F44E5C5F4F84179507D0F0D7
:100FB000A901425351094817590728F42E5C3F4FA5
:100FC0008217930788F098012253310928173907AF
:100FD00068F40E5C1F4F21E08017910740F006C0B7
:100FE00024E005C023E003C022E001C020E0822FFE
:100FF0001F910F9108957F928F929F92AF92BF920F
:10100000CF92DF92EF92FF920F931F93CF93DF93D4
:10101000782E6B017A01E901D8D487EE93E001972D
:10102000F1F700C00000D1D44C01872DCFD122E2CE
:1010300031E040E060E0872DD9D1540192E3A91A54
:10104000B108C3D48A159B0538F0EFE1FEE431976F
:10105000F1F700C00000F5CFF60191838083872D62
:10106000B5D12CE231E040E060E0872DBFD1FFE751
:1010700029EA83E0F15020408040E1F700C0000001
:101080002FE231E040E060E0872DB0D19ED4F60140
:1010900020813181225331098217930738F08FE183
:1010A0009EE40197F1F700C00000F0CFF7019183B3
:1010B0008083872D8BD12CE231E040E060E0872DEA
:1010C00095D1FFE729EA83E0F15020408040E1F725
:1010D00000C0000028E331E040E060E0872D86D1C9
:1010E00074D4F7012081318122533109821793078B
:1010F00038F08FE19EE40197F1F700C00000F0CFD7
:1011000099838883872D62D12CE231E040E060E052
:10111000872D6CD19FE7E9EAF3E09150E040F04081
:10112000E1F700C0000021E431E040E060E0872DFD
:101130005DD14BD42881398122533109821793071D
:1011400038F08FE19EE40197F1F700C00000F1CF85
:10115000F80191838083872D39D12CE231E040E082
:1011600060E0872D43D1FFE729EA83E0F15020407A
:101170008040E1F700C0000088819981F80120815A
:10118000318128173907C0F5F70120813181821795
:10119000930790F5F601808191812817390760F552
:1011A0008815990548F565E575E580E090E012D66B
:1011B000F6016081718182E090E00CD6F7016081D8
:1011C000718184E090E006D66881798186E090E0C4
:1011D00001D6F8016081718188E090E0DF91CF91C4
:1011E0001F910F91FF90EF90DF90CF90BF90AF9045
:1011F0009F908F907F90EEC5FFCFBF92CF92DF92EE
:10120000EF92FF920F931F93CF93DF93B82EEB01D2
:101210007A01690180E090E0D8D585359545C1F423
:1012200082E090E0D2D59983888384E090E0CDD5A8
:10123000F7019183808386E090E0C7D5F601918322
:10124000808388E090E0C1D5F8019183808305C058
:101250009601A701BE018B2DCEDEDF91CF911F91AC
:101260000F91FF90EF90DF90CF90BF900895CF93B4
:10127000DF931F92CDB7DEB72091780130917901CD
:10128000CE0101962115310521F4209162003091A3
:101290006300821B930B0F90DF91CF910895CF9342
:1012A0002FD1C1E0C03839F08C2F38D1882329F0F4
:1012B00027D1CF5FF7CF46D1FFCF44D18C2FCF912D
:1012C0000895CF93C82F846036D100C000C08C2F02
:1012D0008B7F31D100C000C0CF910895CF93C82F2C
:1012E0002AD18C2FCF91EDCF1F93CF93DF93182F5F
:1012F000D62FD07FD42B80E16802B0011124C42FF7
:10130000C62BFED0812F0AD18D2F15D18D2FD9DF7D
:101310008C2F11D18C2FD5DFDF91CF911F9112C16E
:1013200048E0E2DF8FE295E70197F1F700C00000A7
:101330000895CF93C82F8FE39CE90197F1F700C080
:101340000000DED08C2FEAD080E3C8DF87E893E18D
:101350000197F1F700C0000080E3C0DF96E89A959E
:10136000F1F700C080E3BADF86E88A95F1F700C0A4
:1013700080E2B4DF96E89A95F1F700C0E3D068E226
:101380008C2FCEDF68E08C2FCBDF61E08C2FC8DFA5
:1013900066E08C2FC5DF6CE08C2FC2DF80E0CF9140
:1013A0000895C7CF49E0A0CF613154F4433044F4ED
:1013B000442319F0413031F4605C6068B1DF02C051
:1013C00081E0089580E0089561E0AACFFDCF1F93EA
:1013D000CF93DF93182FEB016991662319F0812FCA
:1013E000E1DFFACFDF91CF911F9108950F931F9303
:1013F000CF93C82F8901D8DFB8018C2FCF911F91CF
:101400000F91E5CFEF92FF921F93CF93DF9300D020
:101410001F92CDB7DEB7182FF22EC6DF1F92FF92B4
:101420008BE491E09F938F93CE0101967C019F9373
:101430008F934ED4B701812FCADF0F900F900F907A
:101440000F900F900F900F900F900F90DF91CF9112
:101450001F91FF90EF900895EF92FF921F93CF930B
:10146000DF93CDB7DEB761970FB6F894DEBF0FBE3E
:10147000CDBF182FF22EE32E97DFEF92FF9280E57B
:1014800091E09F938F93CE0101967C019F938F9360
:101490001FD4B701812F9BDF0F900F900F900F90FB
:1014A0000F900F9061960FB6F894DEBF0FBECDBFC0
:1014B000DF91CF911F91FF90EF900895CF93C62FAA
:1014C000C77F21F4443021F0442341F0C1E00DC036
:1014D000611102C064E105C06CE103C0611103C089
:1014E00060E11EDF02C068E1FCCF8C2FCF91089530
:1014F0008CE080B981B191B18370892B81B9089555
:1015000084EA86BF06B607FEFDCF81B1887F8830AA
:1015100019F0803109F0089580E00895880F83B9AB
:1015200084EC86BF06B607FEFDCF81B1887F883187
:1015300009F480E0089583B984EC86BF06B607FEFF
:10154000FDCF089584E986BF089587EE93E0019763
:10155000F1F700C00000C59A87EE93E00197F1F71C
:1015600000C00000C5980895CF93AA9AA99A823026
:10157000F1F0833039F18130B9F5C69A87EC90E00B
:101580000197F1F700C00000909AC7E0DEDF87EE18
:1015900093E00197F1F700C00000C150B9F7C2987D
:1015A000C398C498A89800C000C090981DC0C29865
:1015B000C398C498A898C69A909887EC90E0019731
:1015C000F1F710C0C698909AC298C398C498A8988A
:1015D000C69A95E39A95F1F70000909883EF91E011
:1015E0000197F1F700C00000CF910895B998B8981D
:1015F0008F988E988D98BF988B988A98C198C0982C
:10160000979896989598C798939892980895AF92BE
:10161000BF92CF92DF92EF92FF920F931F93CF93DF
:10162000DF93E4DF20B396B3892F881F8827881FB4
:10163000382F3295330F307E822F881F8827881FDE
:10164000880F880F832B90FBAA24A0F8B12CAA0C3A
:10165000BB1CA82A969591709A2922FBEE24E0F8EB
:10166000F12CF694FE2CEE24F794E794E92A23FB60
:10167000002700F910E056E0000F111F5A95E1F71E
:101680000E2925FB882780F9C82F80E0D82F64E039
:10169000CC0FDD1F6A95E1F7C02B26FBCC24C0F8E8
:1016A000D12CC60173E0880F991F7A95E1F78C2B36
:1016B000DF91CF911F910F91FF90EF90DF90CF902E
:1016C000BF90AF900895B99AB89A8F9A8E9A8D9AD2
:1016D000BF9A8B9A8A9AC198C0989798969895982D
:1016E000C7989398929808957F928F929F92AF9205
:1016F000BF92CF92DF92EF92FF920F931F93CF93FF
:10170000DF93782EE0DF88B370FAAA24A0F8B12C1A
:10171000AA0CBB1CA82AA8BA98B371FA882780F92A
:10172000892B88BB82B372FACC24C0F8D12CD69412
:10173000DC2CCC24D794C794C82AC2BA82B373FADB
:10174000EE24E0F8F12C36E0EE0CFF1C3A95E1F7C0
:10175000E82AE2BA82B374FA002700F910E045E003
:10176000000F111F4A95E1F7082B02BB88B375FAE9
:10177000992790F9C92F90E0D92FD695DC2FCC2747
:10178000D795C795C82BC8BB82B376FA882480F852
:10179000912C63E0880C991C6A95E1F7882A82BA3B
:1017A00082B3771C7724771C770C770C782A72BA6F
:1017B000DF91CF911F910F91FF90EF90DF90CF902D
:1017C000BF90AF909F908F907F90BFCEC39AC498E8
:1017D000A8988ACFC398C498A89886CFCF93DF9350
:1017E000D82FC62F88E0F2DF8D2FF4DFAA98C13002
:1017F00011F4A89A01C0A8980ADFAA9ADF91CF91A4
:101800000895C398C49A70CF0F931F93CF93DF931B
:101810001F92CDB7DEB78983062F142F80E4D6DF61
:101820008981EFDF013011F4A89A01C0A898113026
:1018300011F4919A01C09198A998A99A2FE788E389
:1018400091E0215080409040E1F700C00000A8984E
:1018500091980F90DF91CF911F910F910895CF93A1
:10186000DF931F92CDB7DEB7898380E2AFDF898136
:10187000C8DFA998A99A2FE788E391E0215080401A
:101880009040E1F700C000000F90DF91CF910895E4
:10189000AA98A998A898C498C398C2989198C598EE
:1018A000909AC6989498089587EE93E00197F1F77F
:1018B00000C000009BDEECDF909AC698089554DECD
:1018C00080E884DF87EE93E00197F1F700C0000025
:1018D000A998A99A9FE728E381E091502040804091
:1018E000E1F700C00000E0CF1F93CF93DF93162FE6
:1018F000EA013ADE888140E060E086DF898140E0ED
:1019000061E082DF123021F48A8141E060E07CDF17
:101910008B81A5DFDF91CF911F91C6CF1F93CF930E
:10192000DF93162FEA0120DE84E050DFAA98919819
:10193000A8986DDE8883AA98919AA89A68DE898310
:10194000123029F4AA98919AA89861DE01C08FEF0D
:101950008A83AA989198A89A5ADE8B83AA9ADF91D3
:10196000CF911F91A1CFCF93DF93EB01FDDD60E01D
:1019700080E034DF888360E081E030DF898360E0ED
:1019800082E02CDF8A83DF91CF918ECFA29AA19A39
:10199000A09ABC9ABB9ABA9A899ABD9A889ABE9A1A
:1019A0008C9824DE75CFA39887B1806C87B93D9859
:1019B00087B1837F87B987B1836087B9379A3598B4
:1019C00086B1866086B9369A0895369A3499FECFE4
:1019D00084B125B1237090E0922B08952F923F920D
:1019E0004F925F926F927F928F929F92AF92BF922F
:1019F000CF92DF92EF92FF920F931F93CF93DF93DB
:101A0000CDB7DEB7CA1BDB0B0FB6F894DEBF0FBE37
:101A1000CDBF09942A88398848885F846E847D8484
:101A20008C849B84AA84B984C884DF80EE80FD8086
:101A30000C811B81AA81B981CE0FD11D0FB6F894FC
:101A4000DEBF0FBECDBFED0108950F93083090F0BB
:101A5000982F872F762F652F542F432F322F222731
:101A60000850F4CF220F331F441F551F661F771FE6
:101A7000881F991F0A95B2F70F910895283008F032
:101A800027E03327DA01990F311D87FD9160009619
:101A90006105710539F432602E5F3D9330E32A957C
:101AA000E1F708959F3F30F080387105610509F036
:101AB0003C5F3C5F3D93913008F08068911DDF935F
:101AC000CF931F930F93FF92EF92192F987F9695C4
:101AD000E92F96959695E90FFF27E857FF4F99272D
:101AE0003327EE24FF24A701E7010590089407940B
:101AF00028F4360FE71EF81E491F511D660F771F89
:101B0000881F991F0694A1F70590079428F4E70E03
:101B1000F81E491F561FC11D770F881F991F661F8A
:101B20000694A1F70590079428F4F80E491F561F54
:101B3000C71FD11D880F991F661F771F0694A1F735
:101B40000590079420F4490F561FC71FD81F990FFF
:101B5000661F771F881F0694A9F784911095177048
:101B600041F0D695C79557954795F794E7941A9500
:101B7000C1F7EEE2F0E0689415901591359165910A
:101B8000959105907FE27395E118F10A430B560B8E
:101B9000C90BD009C0F7E10CF11E431F561FC91F26
:101BA000D01D7EF4703311F48A95E6CFE89401508D
:101BB00030F0080F0AF40027021708F4202F2395AD
:101BC000022F7A3328F079E37D932A95E9F710C044
:101BD0007D932A9589F6069497956795379517957D
:101BE0001794E118F10A430B560BC90BD00998F072
:101BF00023957E9173957A3308F070E37C932013DC
:101C0000B8F77E9170617D9330F0839571E37D9399
:101C100070E32A95E1F71124EF90FF900F911F9147
:101C2000CF91DF91992787FD90950895FC0105904C
:101C3000615070400110D8F7809590958E0F9F1FCE
:101C40000895FC016150704001900110D8F7809513
:101C500090958E0F9F1F08950F931F93CF93DF933F
:101C6000FB01238121FD03C08FEF9FEF2CC022FFDA
:101C700016C046815781248135814217530744F4A9
:101C8000A081B1819D012F5F3F4F318320838C93D1
:101C9000268137812F5F3F4F3783268314C08B0106
:101CA000EC01FB010084F185E02D0995892BE1F61B
:101CB000D80116968D919C911797019617969C9333
:101CC0008E931697CE01DF91CF911F910F910895BA
:101CD000AEE0B0E0EDE6FEE08FCE0D891E8986E035
:101CE0008C831A8309838FEF9FE79E838D83AE01D8
:101CF000475E5F4F6F89788DCE01019631D2EF81BB
:101D0000F885E00FF11F10822E96E4E091CEFA01E3
:101D1000AA27283051F1203181F1E8946F936E7F2A
:101D20006E5F7F4F8F4F9F4FAF4FB1E03ED0B4E01B
:101D30003CD0670F781F891F9A1FA11D680F791F5C
:101D40008A1F911DA11D6A0F711D811D911DA11D6D
:101D500020D009F468943F912AE0269F112430197D
:101D6000305D3193DEF6CF010895462F4770405D18
:101D70004193B3E00FD0C9F7F6CF462F4F70405DC7
:101D80004A3318F0495D31FD4052419302D0A9F722
:101D9000EACFB4E0A6959795879577956795BA951C
:101DA000C9F700976105710508959B01AC010A2EE2
:101DB00006945795479537952795BA95C9F7620FB9
:101DC000731F841F951FA01D0895A8E1B0E042E095
:101DD00050E005C012D0272F11C0DC01CB01FC015F
:101DE000E199FECF06C0FFBBEEBBE09A31960DB283
:101DF0000D9241505040B8F70895262FE199FECF3B
:101E00009FBB8EBB2DBB0FB6F894E29AE19A0FBE32
:081E100001960895F894FFCF3C
:101E180000007C01200065016345524153494E474B
:101E28002E2E0057524954494E472E2E002020206E
:101E380020202020202020202020202020003D00BD
:101E48004C46202048462020454620204C42003C55
:101E58003C204655534553003C3C20455241534590
:101E6800203E3E005349474E4154555245203E3E80
:101E78000061746D65676138006D6567613332387C
:101E880070006D656761333238004C43440053522B
:101E9800414D004348454150204845414C4552007A
:101EA80042592043484950204B494C4C4552002D3B
:101EB8002D2D2D2D2D2D2D2D2D2D004F5A464F52C8
:101EC800455354455220004E4F20544152474554E3
:101ED8003F00507265737320456E74004F4B00507D
:101EE80072657373203E3E005072657373203C3CEC
:101EF80000507265737320457363002530325800B3
:061F0800256400255800CD
:00000001FF
